:020000040800F2
:1000000000800120D9260008C9140008CF14000878
:10001000D5140008DB140008E114000800000000FB
:10002000000000000000000000000000E7140008CD
:10003000F514000800000000031500081115000861
:100040002927000829270008292700082927000850
:100050002927000829270008292700082927000840
:100060002927000829270008292700082927000830
:10007000292700081D15000829270008292700083E
:10008000292700083115000829270008292700081A
:100090002927000829270008292700082927000800
:1000A00029270008292700082927000829270008F0
:1000B00029270008292700082927000829270008E0
:1000C00029270008292700082927000829270008D0
:1000D00029270008292700085D150008292700089E
:1000E00029270008292700082927000829270008B0
:1000F00029270008292700082927000829270008A0
:10010000292700082927000829270008292700088F
:10011000292700082927000829270008292700087F
:10012000292700082927000829270008292700086F
:10013000292700082927000829270008292700085F
:1001400029270008B91500082927000829270008D1
:10015000292700082927000829270008292700083F
:10016000292700082927000829270008292700082F
:100170002927000829270008292700080000000077
:080180002927000829270008C7
:1001900010B5054C237833B9044B13B10448AFF3C1
:1001A00000800123237010BD840B0020000000009C
:1001B000DC9D000808B5034B1BB103490348AFF3AE
:1001C000008008BD00000000880B0020DC9D0008B6
:1001D00081F0004102E000BF83F0004330B54FEAF8
:1001E00041044FEA430594EA050F08BF90EA020F65
:1001F0001FBF54EA000C55EA020C7FEA645C7FEAF8
:10020000655C00F0E2804FEA5454D4EB5555B8BF1A
:100210006D420CDD2C4480EA020281EA030382EA8B
:10022000000083EA010180EA020281EA0303362D1D
:1002300088BF30BD11F0004F4FEA01314FF4801CF0
:100240004CEA113102D0404261EB410113F0004F02
:100250004FEA03334CEA133302D0524263EB4303B9
:1002600094EA050F00F0A780A4F10104D5F1200E57
:100270000DDB02FA0EFC22FA05F2801841F10001B2
:1002800003FA0EF2801843FA05F359410EE0A5F186
:1002900020050EF1200E012A03FA0EFC28BF4CF0B7
:1002A000020C43FA05F3C01851EBE37101F000456D
:1002B00007D54FF0000EDCF1000C7EEB00006EEB7A
:1002C0000101B1F5801F1BD3B1F5001F0CD3490804
:1002D0005FEA30004FEA3C0C04F101044FEA44525B
:1002E00012F5800F80F09A80BCF1004F08BF5FEAE2
:1002F000500C50F1000041EB045141EA050130BDC2
:100300005FEA4C0C404141EB0101013C28BFB1F5D3
:10031000801FE9D291F0000F04BF01460020B1FA1E
:1003200081F308BF2033A3F10B03B3F120020CDAF1
:100330000C3208DD02F1140CC2F10C0201FA0CF0CF
:1003400021FA02F10CE002F11402D8BFC2F1200C34
:1003500001FA02F120FA0CFCDCBF41EA0C019040EA
:10036000E41AA2BF01EB0451294330BD6FEA040433
:100370001F3C1CDA0C340EDC04F11404C4F120021E
:1003800020FA04F001FA02F340EA030021FA04F330
:1003900045EA030130BDC4F10C04C4F1200220FA87
:1003A00002F001FA04F340EA0300294630BD21FAC5
:1003B00004F0294630BD94F0000F83F4801306BF8B
:1003C00081F480110134013D4EE77FEA645C18BF7F
:1003D0007FEA655C29D094EA050F08BF90EA020F16
:1003E00005D054EA000C04BF1946104630BD91EA0E
:1003F000030F1EBF0021002030BD5FEA545C05D111
:100400004000494128BF41F0004130BD14F580044F
:100410003CBF01F5801130BD01F0004545F0FE41C3
:1004200041F470014FF0000030BD7FEA645C1ABFF8
:10043000194610467FEA655C1CBF0B46024650EA2F
:10044000013406BF52EA033591EA030F41F400215B
:1004500030BD00BF90F0000F04BF0021704730B5E1
:100460004FF4806404F132044FF000054FF00001B6
:1004700050E700BF90F0000F04BF0021704730B577
:100480004FF4806404F1320410F0004548BF40424C
:100490004FF000013EE700BF42004FEAE2014FEAA1
:1004A00031014FEA02701FBF12F07F4393F07F4F7C
:1004B00081F06051704732F07F4208BF704793F07F
:1004C0007F4F04BF41F40021704730B54FF4607492
:1004D00001F0004521F000411CE700BF50EA010295
:1004E00008BF704730B54FF000050AE050EA01023E
:1004F00008BF704730B511F0004502D5404261EBAE
:1005000041014FF4806404F132045FEA915C3FF4EE
:10051000D8AE4FF003025FEADC0C18BF03325FEA8B
:10052000DC0C18BF033202EBDC02C2F1200300FA3C
:1005300003FC20FA02F001FA03FE40EA0E0021FA61
:1005400002F11444BDE600BF70B54FF0FF0C4CF44F
:10055000E06C1CEA11541DBF1CEA135594EA0C0F01
:1005600095EA0C0F00F0DEF82C4481EA030621EA3C
:100570004C5123EA4C5350EA013518BF52EA033577
:1005800041F4801143F4801338D0A0FB02CE4FF029
:100590000005E1FB02E506F00042E0FB03E54FF059
:1005A0000006E1FB03569CF0000F18BF4EF0010E51
:1005B000A4F1FF04B6F5007F64F5407404D25FEA4D
:1005C0004E0E6D4146EB060642EAC62141EA555100
:1005D0004FEAC52040EA5E504FEACE2EB4F1FD0C42
:1005E00088BFBCF5E06F1ED8BEF1004F08BF5FEAC0
:1005F000500E50F1000041EB045170BD06F0004672
:1006000046EA010140EA020081EA0301B4EB5C041E
:10061000C2BFD4EB0C0541EA045170BD41F4801116
:100620004FF0000E013C00F3AB8014F1360FDEBF3B
:10063000002001F0004170BDC4F10004203C35DA17
:100640000C341BDC04F11404C4F1200500FA05F39A
:1006500020FA04F001FA05F240EA020001F000423B
:1006600021F0004110EBD37021FA04F642EB0601B1
:100670005EEA430E08BF20EAD37070BDC4F10C04DB
:10068000C4F1200500FA04F320FA05F001FA04F29F
:1006900040EA020001F0004110EBD37041F100018B
:1006A0005EEA430E08BF20EAD37070BDC4F1200596
:1006B00000FA05F24EEA020E20FA04F301FA05F2FE
:1006C00043EA020321FA04F001F0004121FA04F2A6
:1006D00020EA020000EBD3705EEA430E08BF20EA76
:1006E000D37070BD94F0000F0FD101F000464000B0
:1006F00041EB010111F4801F08BF013CF7D041EA32
:10070000060195F0000F18BF704703F00046520035
:1007100043EB030313F4801F08BF013DF7D043EA06
:100720000603704794EA0C0F0CEA135518BF95EABC
:100730000C0F0CD050EA410618BF52EA4306D1D143
:1007400081EA030101F000414FF0000070BD50EA62
:10075000410606BF1046194652EA430619D094EAEC
:100760000C0F02D150EA013613D195EA0C0F05D1D6
:1007700052EA03361CBF104619460AD181EA03012A
:1007800001F0004141F0FE4141F470014FF00000E2
:1007900070BD41F0FE4141F4780170BD70B54FF07D
:1007A000FF0C4CF4E06C1CEA11541DBF1CEA1355FD
:1007B00094EA0C0F95EA0C0F00F0A7F8A4EB0504DF
:1007C00081EA030E52EA03354FEA013100F08880D6
:1007D0004FEA03334FF0805545EA131343EA12639F
:1007E0004FEA022245EA111545EA10654FEA002654
:1007F0000EF000419D4208BF964244F1FD0404F50D
:10080000407402D25B084FEA3202B61A65EB030568
:100810005B084FEA32024FF480104FF4002CB6EB25
:10082000020E75EB030E22BFB61A754640EA0C00A5
:100830005B084FEA3202B6EB020E75EB030E22BFE5
:10084000B61A754640EA5C005B084FEA3202B6EB26
:10085000020E75EB030E22BFB61A754640EA9C00E5
:100860005B084FEA3202B6EB020E75EB030E22BFB5
:10087000B61A754640EADC0055EA060E18D04FEA73
:10088000051545EA16754FEA06164FEAC30343EA13
:1008900052734FEAC2025FEA1C1CC0D111F4801FE0
:1008A0000BD141EA00014FF000004FF0004CB6E7D9
:1008B00011F4801F04BF01430020B4F1FD0C88BF78
:1008C000BCF5E06F3FF6AFAEB5EB030C04BFB6EB83
:1008D000020C5FEA500C50F1000041EB045170BD76
:1008E0000EF0004E4EEA113114EB5C04C2BFD4EBA3
:1008F0000C0541EA045170BD41F480114FF0000E27
:10090000013C90E645EA060E8DE60CEA135594EAA2
:100910000C0F08BF95EA0C0F3FF43BAF94EA0C0FA5
:100920000AD150EA01347FF434AF95EA0C0F7FF41A
:1009300025AF104619462CE795EA0C0F06D152EA6E
:1009400003353FF4FDAE1046194622E750EA410652
:1009500018BF52EA43067FF4C5AE50EA41047FF463
:100960000DAF52EA43057FF4EBAE12E74A0011D215
:1009700012F5001211D20DD56FF47873B3EB6252F9
:100980000ED44FEAC12343F0004343EA505323FA05
:1009900002F070474FF00000704750EA013002D17A
:1009A0004FF0FF3070474FF00000704753B94AB91D
:1009B000002908BF00281CBF4FF0FF314FF0FF3067
:1009C00000F074B9ADF1080C6DE904CE00F006F842
:1009D000DDF804E0DDE9022304B070472DE9F047BB
:1009E000089D04468E46002B4DD18A42944669D913
:1009F000B2FA82F252B101FA02F3C2F1200120FAF6
:100A000001F10CFA02FC41EA030E94404FEA1C4843
:100A1000210CBEFBF8F61FFA8CF708FB16E341EA3F
:100A2000034306FB07F199420AD91CEB030306F1C5
:100A3000FF3080F01F81994240F21C81023E6344E6
:100A40005B1AA4B2B3FBF8F008FB103344EA03448A
:100A500000FB07F7A7420AD91CEB040400F1FF339F
:100A600080F00A81A74240F207816444023840EADC
:100A70000640E41B00261DB1D4400023C5E9004315
:100A80003146BDE8F0878B4209D9002D00F0EF8098
:100A90000026C5E9000130463146BDE8F087B3FACB
:100AA00083F6002E4AD18B4202D3824200F2F980B3
:100AB000841A61EB030301209E46002DE0D0C5E9B6
:100AC000004EDDE702B9FFDEB2FA82F2002A40F002
:100AD0009280A1EB0C014FEA1C471FFA8CFE012605
:100AE000200CB1FBF7F307FB131140EA01410EFBA9
:100AF00003F0884208D91CEB010103F1FF3802D250
:100B0000884200F2CB804346091AA4B2B1FBF7F049
:100B100007FB101144EA01440EFB00FEA64508D96C
:100B20001CEB040400F1FF3102D2A64500F2BB80A9
:100B30000846A4EB0E0440EA03409CE7C6F12007F8
:100B4000B34022FA07FC4CEA030C20FA07F401FA3E
:100B500006F31C43F9404FEA1C4900FA06F3B1FBC7
:100B6000F9F8200C1FFA8CFE09FB181140EA01412C
:100B700008FB0EF0884202FA06F20BD91CEB0101C9
:100B800008F1FF3A80F08880884240F28580A8F121
:100B900002086144091AA4B2B1FBF9F009FB101173
:100BA00044EA014100FB0EFE8E4508D91CEB010111
:100BB00000F1FF346CD28E456AD90238614440EAB4
:100BC0000840A0FB0294A1EB0E01A142C846A64634
:100BD00056D353D05DB1B3EB080261EB0E0101FABD
:100BE00007F722FA06F3F1401F43C5E9007100261A
:100BF0003146BDE8F087C2F12003D8400CFA02FC70
:100C000021FA03F3914001434FEA1C471FFA8CFE7F
:100C1000B3FBF7F007FB10360B0C43EA064300FB6F
:100C20000EF69E4204FA02F408D91CEB030300F10D
:100C3000FF382FD29E422DD9023863449B1B89B2C4
:100C4000B3FBF7F607FB163341EA034106FB0EF34D
:100C50008B4208D91CEB010106F1FF3816D28B42FA
:100C600014D9023E6144C91A46EA004638E72E46C6
:100C7000284605E70646E3E61846F8E64B45A9D2BE
:100C8000B9EB020864EB0C0E0138A3E74646EAE72D
:100C9000204694E74046D1E7D0467BE7023B6144DB
:100CA00032E7304609E76444023842E7704700BF44
:100CB00010F8012B11F8013B012A28BF9A42F7D006
:100CC000D01A7047034613F8012B002AFBD1181ADB
:100CD0000138704700000000000000000000000024
:100CE00001F0FF01102A2BDB10F0070F08D010F8DD
:100CF000013B013A8B422DD010F0070F42B3F6D1E1
:100D0000F0B441EA012141EA014122F007047FF0F9
:100D100000070023F0E80256083C85EA010586EA50
:100D2000010685FA47F5A3FA87F586FA47F6A5FA8C
:100D300087F68EB9EED1F0BC01F0FF0102F0070298
:100D400032B110F8013B013A83EA010313B1F8D143
:100D50000020704701387047002D06BF3546033824
:100D6000073815F0010F07D1013015F4807F02BF5D
:100D7000013015F4C03F0130F0BC0138704700BFAE
:100D80004FF0FF3C06E000BF4FF0010C02E000BF57
:100D90004FF0010C4DF804CD4FEA410C7FEA6C5C3A
:100DA0004FEA430C18BF7FEA6C5C1BD001B050EADD
:100DB000410C0CBF52EA430C91EA030F02BF90EAC8
:100DC000020F0020704710F1000F91EA030F58BF87
:100DD000994208BF90422CBFD8176FEAE37040F0E9
:100DE000010070474FEA410C7FEA6C5C02D150EA87
:100DF000013C07D14FEA430C7FEA6C5CD6D152EA42
:100E0000033CD3D05DF8040B704700BF8446104606
:100E100062468C461946634600E000BF01B5FFF705
:100E2000B7FF002848BF10F1000F01BD4DF808EDD5
:100E3000FFF7F4FF0CBF012000205DF808FB00BFA6
:100E40004DF808EDFFF7EAFF34BF012000205DF800
:100E500008FB00BF4DF808EDFFF7E0FF94BF01204D
:100E600000205DF808FB00BF4DF808EDFFF7CEFF4E
:100E700094BF012000205DF808FB00BF4DF808ED8D
:100E8000FFF7C4FF34BF012000205DF808FB00BF5E
:100E90004FEA410212F5001215D211D56FF47873A2
:100EA000B3EB625212D94FEAC12343F0004343EA45
:100EB000505311F0004F23FA02F018BF4042704720
:100EC0004FF00000704750EA013005D111F00040AA
:100ED00008BF6FF0004070474FF00000704700BF40
:100EE00080B58AB000AF3B1D24220021184606F0D1
:100EF0006CFF124B124A1A60104801F07CFD034649
:100F0000002B01D000F0B6FA00237B600023BB6009
:100F10000023FB6000233B6100237B613B1D00221B
:100F20001946064801F074FE0346002B01D000F07C
:100F3000A1FA00BF2837BD4680BD00BFA00B00202E
:100F40000074004080B58AB000AF786007F11403E8
:100F500000221A605A609A60DA601A617B681B6826
:100F60002B4A93424FD12B4B9B6D2A4A43F000539F
:100F70009365284B9B6D03F000533B613B69254B08
:100F8000DB6C244A43F00103D364224BDB6C03F097
:100F90000103FB60FB6810237B610323BB6100231B
:100FA000FB6107F1140319464FF0904002F004FA78
:100FB000194B1A4A1A60184B06225A60164B102217
:100FC0009A60154B0022DA60134B80221A61124B93
:100FD0004FF480725A61104B4FF480629A610E4B4D
:100FE0002022DA610C4B00221A620B4801F06EFFDE
:100FF0000346002B01D000F03DFA7B68064A9A6058
:10100000054A7B68936200BF2837BD4680BD00BF9C
:101010000074004000100240B40B00203000024079
:1010200080B582B000AF104B9B6C0F4A43F00103B8
:1010300093640D4B9B6C03F001037B607B68002283
:1010400000210D2001F04DFC0D2001F066FC002276
:101050000021112001F045FC112001F05EFC00BFD1
:101060000837BD4680BD00BF0010024080B487B085
:1010700000AF78603960174A3B68DBB2023352F840
:1010800023203B681B0CDB4302EA03013B681B0C7B
:101090003B613B6993FAA3F3FB60FB687B617B696F
:1010A000002B01D1202303E07B69B3FA83F3DBB289
:1010B0001A467B6803FA02F206483B68DBB20A4331
:1010C000023340F8232000BF1C37BD465DF8047B87
:1010D000704700BF0000014080B48BB000AFF860E3
:1010E000B9607A60FB681A68BB687B617B6993FAB8
:1010F000A3F33B613B69BB61BB69002B01D120239A
:1011000003E0BB69B3FA83F3DBB25B00032101FAAE
:1011100003F3DB431A40BB683B623B6A93FAA3F3D9
:10112000FB61FB697B627B6A002B01D1202303E01A
:101130007B6AB3FA83F3DBB25B00796801FA03F3ED
:101140001A43FB681A6000BF2C37BD465DF8047B6C
:10115000704780B48BB000AFF860B9607A60FB680C
:10116000DA68BB687B617B6993FAA3F33B613B69F7
:10117000BB61BB69002B01D1202303E0BB69B3FA3B
:1011800083F3DBB25B00032101FA03F3DB431A4074
:10119000BB683B623B6A93FAA3F3FB61FB697B622A
:1011A0007B6A002B01D1202303E07B6AB3FA83F32F
:1011B000DBB25B00796801FA03F31A43FB68DA607B
:1011C00000BF2C37BD465DF8047B704780B483B008
:1011D00000AF786039607B683A689A6200BF0C376C
:1011E000BD465DF8047B704780B485B000AF786081
:1011F000084BDA6C07497B681343CB64054BDA6C08
:101200007B681340FB60FB6800BF1437BD465DF888
:10121000047B70470010024080B58AB000AF07F130
:101220001C0300221A605A609A603B1D00221A605B
:101230005A609A60DA601A615A610420FFF7D4FF9D
:101240008020FFF7D1FF0120FFF7CEFF0220FFF73C
:10125000CBFF20214FF09040FFF7B8FF1B49022041
:10126000FFF704FF4FF40053FB6100233B620123AF
:1012700087F82430002387F82530022387F82630AA
:1012800007F11C03184606F0E5F800224FF4005160
:101290000F48FFF75EFF00224FF400510C48FFF7A4
:1012A0001BFF20237B600123BB600023FB60002326
:1012B0003B6100237B613B1D19464FF0904006F0D7
:1012C0000BFB00BF2837BD4680BD00BF0300F00008
:1012D0000008004880B500AF134B144A1A60124B47
:1012E00000225A60104B4FF480629A600E4B4FF60A
:1012F000FF725A610C4B00221A620B4B00225A6299
:10130000094B00229A62084B0022DA62064B002247
:101310001A63054802F0FAF90346002B01D000F0E9
:10132000A9F800BF80BD00BFFC0B0020007C00407E
:1013300080B5A6B000AF786007F1100388220021C5
:10134000184606F042FD7B681B68154A934223D17C
:101350004FF400733B614FF48023FB6607F11003E9
:10136000184602F011FE0346002B01D000F082F86F
:101370000C4B9B6D0B4A43F000439365094B9B6DEF
:1013800003F00043FB60FB6800220021412001F0D4
:10139000A8FA412001F0C1FA00BF9837BD4680BDD0
:1013A000007C00400010024080B500AF05F062FEF6
:1013B00000F00DF8FFF730FFFFF732FE00F016FEE9
:1013C000FFF788FFFFF78CFD01F0EEF8FEE780B530
:1013D00096B000AF07F1140344220021184606F02E
:1013E000F4FC3B4600221A605A609A60DA601A6187
:1013F0004FF4007002F01AFD0346002B01D000F0FC
:1014000039F80A237B614FF480733B6210237B62BF
:101410000123BB620223FB6302233B6401237B6441
:101420000A23BB640723FB6402233B6502237B651D
:1014300007F11403184603F005FB0346002B01D007
:1014400000F018F80F233B6003237B600023BB6090
:101450000023FB6000233B613B460421184603F058
:10146000CDFE0346002B01D000F004F800BF583732
:10147000BD4680BD80B400AF72B600BFFEE700007D
:1014800080B483B000AF0F4B1B6E0E4A43F00103D4
:1014900013660C4B1B6E03F001037B607B68094BEA
:1014A0009B6D084A43F080539365064B9B6D03F098
:1014B00080533B603B6800BF0C37BD465DF8047B42
:1014C000704700BF0010024080B400AFFEE780B458
:1014D00000AFFEE780B400AFFEE780B400AFFEE7E8
:1014E00080B400AFFEE780B400AF00BFBD465DF83A
:1014F000047B704780B400AF00BFBD465DF8047B3D
:10150000704780B400AF00BFBD465DF8047B7047F4
:1015100080B500AF05F00AFE00BF80BD80B500AF0A
:10152000024801F06AFE00BF80BD00BFB40B00207E
:1015300080B500AF054B5B68054A1360054801F0B4
:101540005CFE054B01221A7000BF80BD001000E058
:10155000840E0020E00D00200500002080B500AFC3
:10156000104B1B78002B0FD00F4BDB6903F02003CF
:10157000202B09D10C4B9B8C9BB2DAB20B4B1A750A
:101580000A4B9B6909489847094804F005FA054B3E
:101590001B78002B04D001220649054804F034F9D9
:1015A00000BF80BD0500002000440040280E002040
:1015B000580D00203C0E002080B500AF034802F01B
:1015C00007FA00F0C9FE00BF80BD00BFFC0B002081
:1015D00080B400AF01231846BD465DF8047B704718
:1015E00080B582B000AF7860396006F0E7F9034655
:1015F00016221A604FF0FF3318460837BD4680BDEB
:1016000080B582B000AF78604FF0FF317868FFF7A7
:10161000E7FFFEE780B586B000AFF860B9607A609A
:1016200000237B610AE0AFF300800146BB685A1CCF
:10163000BA60CAB21A707B6901337B617A697B68D0
:101640009A42F0DB7B6818461837BD4680BD80B4EF
:1016500083B000AF78604FF0FF3318460C37BD46BB
:101660005DF8047B704780B483B000AF7860396068
:101670003B684FF400525A60002318460C37BD46B1
:101680005DF8047B704780B483B000AF78600123BD
:1016900018460C37BD465DF8047B704780B485B0B2
:1016A00000AFF860B9607A60002318461437BD4671
:1016B0005DF8047B7047000080B586B000AF7860AD
:1016C000144A154BD31A7B617B693B61134B1B6832
:1016D000002B02D1114B124A1A60104B1A687B681A
:1016E00013443A699A4207D206F068F903460C227D
:1016F0001A604FF0FF3309E0084B1B68FB60074B93
:101700001A687B681344054A1360FB68184618374B
:10171000BD4680BD0080012000040000340C002084
:10172000A816002080B400AF064BD3F88830054AD5
:1017300043F47003C2F8883000BFBD465DF8047BF7
:10174000704700BF00ED00E080B582B000AF0346F7
:101750003960FB71064B5B6B06489847064B1B686C
:101760009B68184606F0F2F900BF0837BD4680BDF9
:10177000140D0020F89D0008200B002080B485B0D7
:1017800000AFF8607A603B600B46FB72234B1B781E
:101790001946234A0B469B000B449B001344FA68EE
:1017A0001A601E4B1B7819461D4A0B469B000B44C2
:1017B0009B0013440433FA7A1A70184B1B781946AD
:1017C000174A0B469B000B449B00134408337A686E
:1017D0001A60124B1B781946114A0B469B000B44AA
:1017E0009B0013440C333A681A600C4B1B78194663
:1017F0000B4A0B469B000B449B00134410333A7E6C
:101800001A70064B1B780133DAB2044B1A7000BF12
:101810001437BD465DF8047B704700BF500D0020B3
:10182000380C002090B587B002AFF860B9607A60DC
:10183000FB68254A9A60FB68244A1A61FB68244ABF
:101840009A61FB680D221A71FB687A681A65FB6859
:10185000BA681A601F4B002283F838201D4A7B6843
:1018600053631C4B002283F83920FB689C680023DB
:101870000093194B194A20211948A047FB689C681E
:1018800000230093144B154A20211648A047FB68FB
:101890009C6800230093144B144A20211448A0474D
:1018A00000F090FB0B4B5B6BFA6812681146114815
:1018B0009847114B1B689B68184606F047F900BF14
:1018C0001437BD4690BD00BF7D1700081D1B0008E2
:1018D000FD180008140D0020009E0008AD1E000831
:1018E0001C9E0008209E0008289E0008491700083A
:1018F000389E00083C9E0008200B002080B582B076
:1019000000AF78607B681B7B83F00103DBB2002BA8
:1019100000F08D807B681A7D7B681B799A4203D02A
:101920007B681B7D0A2B07D1434B002283F83820AC
:101930007B6801221A737AE07B681B7D5B2B08D1E0
:101940003E4B1B68002B04D03B4B012283F839200F
:101950006DE07B681B7D5D2B18D1374B002283F82F
:101960003920354B5B6B36489847786800F05CFA55
:10197000314B5B6B7A681268114632489847324B9C
:101980001B689B68184606F0E1F850E07B681A7DFA
:101990002E4B1B789A421FD1274B93F83830002BDF
:1019A00045D0254B93F838301A46234B00219954E3
:1019B000214B93F83830013BDAB21F4B83F83820C3
:1019C0001D4B93F838301A461B4B002199541A4B83
:1019D0005B6B1F4898472AE07B681B7D092B03D16E
:1019E000786800F039F822E0134B93F83830312B47
:1019F0001DD8114B93F838301A467B68197D0E4B71
:101A000099540D4B93F838300133DAB20A4B83F80E
:101A10003820094B5B6B7A68127D11460D48984758
:101A2000094B1B689B68184606F090F8FFE700BF5B
:101A30000837BD4680BD00BF140D0020540D0020A6
:101A4000489E00083C9E0008200B00200400002057
:101A50004C9E0008509E000890B585B000AF78609D
:101A60000023FB730023BB6025E02449BA681346BA
:101A70009B0013449B000B441C682148FFF722F98C
:101A800003461A4621461E4806F08FF90346002BEE
:101A90000ED17B681C6D1949BA6813469B0013442C
:101AA0009B000B441B6819461648A0470123FB7393
:101AB000BB680133BB60144B1B781A46BB6893426A
:101AC000D3DBFB7B002B15D07B681B6D0F48984741
:101AD0007B681B6D7A68126811460D4898477B68D1
:101AE0001B6D07490B4898470B4B1B689B681846B2
:101AF00006F02CF800BF1437BD4690BD380C00200E
:101B0000140D0020549E0008500D0020489E00082F
:101B10003C9E00085C9E0008200B002090B591B010
:101B200000AF786007F1080328220021184606F06C
:101B30004CF9002387F83B309E499F4806F010FB84
:101B4000F863FB6B002B10D1786800F06DF97B68AF
:101B50001B6D7A681268114698489847984B1B6825
:101B60009B68184605F0F2FF53E100237B6319E1FF
:101B700094497A6B13469B0013449B000B441B68EB
:101B80001946F86BFFF794F80346002B40F0FF80EE
:101B9000012387F83B308B497A6B13469B00134433
:101BA0009B000B4404331B7887F83230002387F8FE
:101BB000333016E007F132031946002006F0D0FA60
:101BC000F863FB6B002B10D097F833309B00403349
:101BD0003B44FA6B43F8382C97F83330013387F8DD
:101BE0003330FB6B002BE5D100E000BF97F83330BA
:101BF000002B2AD0BB681B783F2B26D17B681C6D3D
:101C000070497A6B13469B0013449B000B44196880
:101C10006C487A6B13469B0013449B0003440C33BF
:101C20001B681A466848A0477B681B6D7A68126873
:101C30001146624898477B6800221A73604B1B6804
:101C40009B68184605F082FFC7E05E497A6B134631
:101C50009B0013449B000B4410331B78002B24D0B3
:101C6000554B012283F8392056497A6B13469B0065
:101C700013449B000B4408331B68544A1360534BB6
:101C80001B68002100209847FB6B002B00F0A4800C
:101C900097F833309B0040333B44FA6B43F8382CC1
:101CA00097F83330013387F8333097F83330002B0F
:101CB0002AD0BB681B783F2B26D17B681C6D41491D
:101CC0007A6B13469B0013449B000B4419683D48F4
:101CD0007A6B13469B0013449B0003440C331B6830
:101CE0001A463948A0477B681B6D7A68126811460E
:101CF000324898477B6800221A73314B1B689B68F7
:101D0000184605F023FF68E07B681B6D3048984754
:101D10002C497A6B13469B0013449B000B441033F1
:101D20001B78002B14D0244B012283F8392025493D
:101D30007A6B13469B0013449B000B4408331B68CB
:101D4000224A1360214B1B680021002098470EE0B7
:101D50001C497A6B13469B0013449B000B440833C9
:101D60001B6807F1080197F83320104698477868F8
:101D700000F05AF87B681B6D7A68126811460F48AC
:101D800098470F4B1B689B68184605F0DFFE97F8D5
:101D90003B30002B03D07B6800221A731DE07B6B65
:101DA00001337B630B4B1B781A467B6B9342FFF628
:101DB000DFAE12E0609E0008140D00203C9E00087B
:101DC000200B0020380C0020689E0008540D0020D5
:101DD000489E0008500D002000BF97F83B3083F06C
:101DE0000103DBB2002B11D07B681B6D0A490B4845
:101DF00098477B681B6D7A681268114608489847B7
:101E0000084B1B689B68184605F0A0FE786800F038
:101E10000BF84437BD4690BD140D00207C9E000891
:101E20003C9E0008200B002080B485B000AF786095
:101E30007B6800221A730023FB6007E00A4AFB68F4
:101E4000134400221A70FB680133FB60FB68312BDE
:101E5000F4DD054B002283F8382000BF1437BD465F
:101E60005DF8047B704700BF140D002080B582B080
:101E700000AF78600B4B93F83930002B05D00A4B3C
:101E80001B6800210020984707E07B681B7B002B24
:101E900003D07B681B697868984700BF0837BD4648
:101EA00080BD00BF140D0020540D002090B587B0F8
:101EB00000AF03463960FB710123FB7500233B61D2
:101EC0001EE039493A6913469B0013449B000B44BA
:101ED0001B681846FEF7F6FE0246FB7D9A420CD9B7
:101EE00031493A6913469B0013449B000B441B681D
:101EF0001846FEF7E7FE0346FB753B6901333B617D
:101F00002A4B1B781A463B699342DADB0023FB60BD
:101F10003EE0274B5C6B2449FA6813469B00134450
:101F20009B000B441B6819462248A047224B1B68A4
:101F30009B68184605F00AFE0023BB6006E01C4BB8
:101F40005B6B1E489847BB680133BB60FC7D16493C
:101F5000FA6813469B0013449B000B441B68184609
:101F6000FEF7B0FE0346E21ABB689A42E7D8104B70
:101F70005C6B0D49FA6813469B0013449B000B44AD
:101F80000C331B6819460E48A047FB680133FB6001
:101F9000064B1B781A46FB689342BADB00BF00BFB2
:101FA0001C37BD4690BD00BF380C0020500D0020EE
:101FB000140D0020909E0008200B0020A09E000819
:101FC000A49E000880B582B000AF054B7B60054B36
:101FD0005B6B79680448984700BF0837BD4680BDF1
:101FE000AC9E0008140D0020049F000880B500AFCF
:101FF000144B154A1A60134B4FF4E1325A60114BDF
:1020000000229A600F4B0022DA600E4B00221A6108
:102010000C4B0C225A610B4B00229A61094B002297
:10202000DA61084B00221A62064B00225A62054808
:1020300003F012FB0346002B01D0FFF71BFA00BF91
:1020400080BD00BF580D00200044004080B5ACB0FA
:1020500000AF786007F19C0300221A605A609A6012
:10206000DA601A6107F1140388220021184605F08E
:10207000ACFE7B681B683A4A93426CD102237B61B9
:1020800000233B6507F11403184601F07DFF03466A
:10209000002B01D0FFF7EEF9324B9B6D314A43F430
:1020A000003393652F4B9B6D03F400333B613B6919
:1020B0002C4BDB6C2B4A43F00103D364294BDB6CC4
:1020C00003F00103FB60FB680C23C7F89C3002237C
:1020D000C7F8A0300023C7F8A4300323C7F8A830FE
:1020E0000723C7F8AC3007F19C0319464FF0904026
:1020F00001F062F91C4B1D4A1A601B4B02225A6008
:10210000194B10229A60184B0022DA60164B80227D
:102110001A61154B00225A61134B00229A61124B2F
:102120000022DA61104B00221A620F4800F0CEFE46
:102130000346002B01D0FFF79DF97B680A4A1A6716
:10214000094A7B68936200220021262000F0C9FB27
:10215000262000F0E2FB00BFB037BD4680BD00BFC7
:102160000044004000100240E00D002080000240CA
:1021700080B483B000AF0346FB7197F90730002BA2
:102180000CDBFB7903F01F02074997F907305B0965
:10219000012000FA02F2603341F8232000BF0C371F
:1021A000BD465DF8047B704700E100E080B400AFFD
:1021B000084B1B6803F00103002B05D1054B1B687E
:1021C000044A43F00103136000BFBD465DF8047B81
:1021D000704700BF001000E080B582B000AF002360
:1021E0007B6039E07868FEF745F926A3D3E9002340
:1021F000FEF7AAF902460B46104619464FF00002B8
:102200001D4BFEF7CBFA02460B4643EC172BB0EE04
:10221000470AF0EE670A06F097FD51EC100B4FF0FD
:102220000002164BFDF7DAFF02460B461046194630
:102230000FA3D3E90023FEF787F902460B461046A9
:102240001946FEF793FB034699B20D4A7B6822F8C4
:1022500013107B6801337B607B68B3F5806FC1DB53
:1022600000BF00BF0837BD4680BD00BFAFF3008090
:102270000000000000FC9F40000090400000F03F84
:10228000900E0020182D4454FB21194080B582B0D7
:1022900000AF03463960FB71034805F005FF00BF3E
:1022A0000837BD4680BD00BF0C9F000880B500AF59
:1022B00002F026FBFFF78BF8FEF7AEFFFFF796FE66
:1022C00004F088FF034801F041FB034805F0ECFEF1
:1022D00000BF80BDFC0B0020189F000880B584B0B3
:1022E00000AF03463960FB713B681B68184605F078
:1022F00061FB0346FB603B6804331B68184605F02E
:1023000059FB0346BB60B968114805F047FE04F06D
:1023100051FF4FF0FF30FFF72BFFBB684FF4FA522D
:1023200002FB03F31A464FF6FF710A4801F090FAD8
:10233000FB68012B03D1012001F0CEFD02E001205A
:1023400001F0F6FDFFF7B2FF00BF1037BD4680BDBC
:10235000309F0008FC0B002080B500AF024805F05C
:10236000A3FE00BF80BD00BF689F000880B584B099
:1023700000AF03463960FB713B681B68184605F0E7
:1023800019FB0346FB60F968034805F007FE00BF30
:102390001037BD4680BD00BF809F000880B586B065
:1023A00000AFF860B9607A6000237B610BE07B6965
:1023B000BA68D1184FF6FF730122074803F09AF963
:1023C0007B6901337B617A697B689A42EFDB7B68CA
:1023D00018461837BD4680BD580D002080B582B024
:1023E00000AF03463960FB71064B00221A704FF4B0
:1023F00080620549054803F053FA00BF0837BD461F
:1024000080BD00BF05000020900E0020580D002068
:1024100080B582B000AF03463960FB71074B5B6843
:10242000074A13600749084805F0B8FD034B5B688D
:10243000064A136000BF0837BD4680BD001000E0AB
:10244000880E0020080000209C9F00088C0E0020B1
:1024500080B582B000AF03463960FB71084B0022A3
:102460001A70084B5B68084A13604FF431620749E1
:10247000074803F015FA00BF0837BD4680BD00BF0E
:1024800005000020001000E0800E00200800002061
:10249000580D002080B588B000AF03463960FB714D
:1024A0002D4B1A682D4B1B68D31AFB61FB694FF447
:1024B0007A7202FB03F32A4AA2FB03235B0EBB6181
:1024C000FB694FF47A7203FB02F2254BA3FB021364
:1024D0005B0E244901FB03F3D31A4FF47A7202FB1B
:1024E00003F31F4AA2FB03235B0E7B611E4B1A689A
:1024F0001E4B1B68D31A3B613B694FF47A7202FB97
:1025000003F3174AA2FB03235B0EFB603B694FF406
:102510007A7203FB02F2124BA3FB02135B0E11490A
:1025200001FB03F3D31A4FF47A7202FB03F30C4A54
:10253000A2FB03235B0EBB607B69BA69F9690C4897
:1025400005F02CFDBB68FA6839690A4805F026FDDC
:1025500000BF2037BD4680BD8C0E0020880E0020B5
:102560006BCA5F6B00B4C404840E0020800E002090
:10257000A09F0008D89F000880B584B002AF034632
:102580003960FB71002300934FF48063044A0021FB
:10259000044800F053FA00BF0837BD4680BD00BFB5
:1025A000900E0020A00B002090B583B002AFFFF783
:1025B00013FEFFF7FBFD2B4A2B492C48FFF732F99E
:1025C00001222B492B4803F01FF9284B9C6800235C
:1025D0000093294B294A20212948A047234B9C6876
:1025E00000230093274B284A20212848A0471F4B4F
:1025F0009C6800230093264B264A20212648A047AA
:102600001A4B9C6800230093244B254A202125481F
:10261000A047164B9C6800230093234B234A20219C
:102620002348A047114B9C6800230093214B224A6A
:1026300020212248A0470D4B9C6800230093204B8B
:10264000204A20212048A047084B9C680023009383
:102650001E4B1F4A20211F48A0470448FFF706FCD5
:10266000FBE700BF9D7F000810A00008280E002097
:102670003C0E0020580D00201CA000088D220008F0
:1026800038A000083CA00008DD2200085CA000087B
:1026900064A000086D2300088CA0000894A0000826
:1026A000DD230008B0A00008BCA000081124000829
:1026B000D8A00008E4A000085124000808A10008E0
:1026C00014A100089524000840A1000848A10008B2
:1026D0007925000860A10008DFF834D0FFF722F860
:1026E0000C480D490D4A002302E0D458C45004336D
:1026F000C4188C42F9D30A4A0A4C002301E0136043
:102700000432A242FBD305F029FBFEF74DFEFEE7A3
:102710000080012000000020840B0020E0A50008BC
:10272000840B0020A4160020FEE7000080B485B0D2
:1027300000AF78607B6803F00703FB600C4BDB683D
:10274000BB60BA684FF6FF031340BB60FB681A0218
:10275000BB68134343F0BF6343F40033BB60044AD8
:10276000BB68D36000BF1437BD465DF8047B70477B
:1027700000ED00E080B400AF044BDB681B0A03F0FF
:1027800007031846BD465DF8047B704700ED00E086
:1027900080B483B000AF0346FB7197F90730002B7C
:1027A0000BDBFB7903F01F02074997F907305B0940
:1027B000012000FA02F241F8232000BF0C37BD4689
:1027C0005DF8047B704700BF00E100E080B483B097
:1027D00000AF03463960FB7197F90730002B0ADB25
:1027E0003B68DAB20C4997F907301201D2B20B44B8
:1027F00083F800230AE03B68DAB20849FB7903F06A
:102800000F03043B1201D2B20B441A7600BF0C37FF
:10281000BD465DF8047B704700E100E000ED00E09C
:1028200080B489B000AFF860B9607A60FB6803F0EB
:102830000703FB61FB69C3F10703042B28BF0423D3
:10284000BB61FB690433062B02D9FB69033B00E043
:1028500000237B614FF0FF32BB6902FA03F3DA43D6
:10286000BB681A407B699A404FF0FF317B6901FADF
:1028700003F3D9437B680B40134318462437BD4606
:102880005DF8047B7047000080B582B000AF7860CF
:102890007B68013BB3F1807F01D301230FE00A4A3B
:1028A0007B68013B53600F214FF0FF30FFF78EFF35
:1028B000054B00229A60044B07221A600023184639
:1028C0000837BD4680BD00BF10E000E080B582B093
:1028D00000AF78607868FFF729FF00BF0837BD4672
:1028E00080BD80B586B000AF0346B9607A60FB73E7
:1028F00000237B61FFF73EFF78617A68B9687869E9
:10290000FFF78EFF024697F90F3011461846FFF782
:102910005DFF00BF1837BD4680BD80B582B000AFF7
:102920000346FB7197F907301846FFF731FF00BFE8
:102930000837BD4680BD80B582B000AF786078684A
:10294000FFF7A2FF034618460837BD4680BD80B496
:1029500083B000AF786000BF0C37BD465DF8047BE4
:10296000704780B483B000AF786000BF0C37BD46BD
:102970005DF8047B704780B483B000AF786000BF1F
:102980000C37BD465DF8047B704780B584B000AF5E
:1029900078607B689B6AFB60F868FFF7D8FFFB688C
:1029A00001221A7100BF1037BD4680BD80B584B0CA
:1029B00000AF78607B689B6AFB60F868FFF7D1FF27
:1029C00000BF1037BD4680BD80B584B000AF7860D1
:1029D0007B689B6AFB60FB681B6943F00402FB6831
:1029E0001A61F868FFF7C7FFFB6801221A7100BF80
:1029F0001037BD4680BD80B582B000AF78607B687F
:102A0000002B01D1012314E07B681B79DBB2002B82
:102A100005D17B6800225A717868FEF793FA7B68CB
:102A200002221A717B6800221A617B6801221A71E6
:102A3000002318460837BD4680BD000080B586B02B
:102A400000AFF860B9607A603B6000233B61FB68CF
:102A50005B79012B01D10223ABE0FB6801225A71A3
:102A6000FB6802221A71BB68002B2FD1FB689B68A0
:102A7000524ADA62FB689B68514A1A63FB689B689A
:102A8000504A5A63FB681B681A68FB681B6842F46B
:102A900080521A603B6A082B13D03B6A082B45D83A
:102AA0003B6A002B03D03B6A042B05D03EE0FB6859
:102AB0001B6808333B613CE0FB681B680C333B61DF
:102AC00037E0FB681B6810333B6132E0FB68DB6872
:102AD0003D4ADA62FB68DB683C4A1A63FB68DB68E4
:102AE0003B4A5A63FB681B681A68FB681B6842F024
:102AF00080521A603B6A082B13D03B6A082B17D808
:102B00003B6A002B03D03B6A042B05D010E0FB6826
:102B10001B6814333B610CE0FB681B6818333B6196
:102B200007E0FB681B681C333B6102E000BF00E06C
:102B300000BFBB68002B11D1FB681B681A68FB68DB
:102B40001B6842F400521A60FB68986879683B6819
:102B50003A6900F073FA0346FB7510E0FB681B68E6
:102B60001A68FB681B6842F000521A60FB68D8685C
:102B700079683B683A6900F061FA0346FB75FB68C7
:102B800000225A71FB7D002B0CD1FB681B68196871
:102B9000BB6803F0100301229A40FB681B680A43DC
:102BA0001A6005E0FB681B6943F00402FB681A61C8
:102BB000FB7D18461837BD4680BD00BF5F2E00085C
:102BC000812E00089D2E00088B290008AD290008E1
:102BD000C929000880B483B000AF786000BF0C370B
:102BE000BD465DF8047B704780B483B000AF786069
:102BF00000BF0C37BD465DF8047B704780B483B0DE
:102C000000AF786000BF0C37BD465DF8047B7047AD
:102C100080B588B000AFF860B9607A600023FB61CE
:102C2000FB685B79012B01D1022314E1FB680122CF
:102C30005A71FB6802221A71BB681B68042B40F0B2
:102C4000818004F087FAF8617B68002B40D118E09E
:102C500004F080FA0246FB69D31A012B11D9FB68F4
:102C60001B685B6B03F40043002B0AD0FB681B69F5
:102C700043F00802FB681A61FB6803221A71032300
:102C8000E9E0FB681B685B6B03F40043002BDFD1BA
:102C9000012004F06BFAFB681B68BA6892691A6439
:102CA00023E004F057FA0246FB69D31A012B0FD92F
:102CB000FB681B685B6B002B0ADAFB681B6943F03F
:102CC0000802FB681A61FB6803221A710323C2E041
:102CD000FB681B685B6B002BE3DB012004F046FA0A
:102CE000FB681B68BA6892695A64FB681B689A6C37
:102CF0007B6803F0100340F2FF3101FA03F3DB437A
:102D000002EA0301BB68DA697B6803F010039A40AA
:102D1000FB681B680A439A64FB681B68DA6C7B6873
:102D200003F01003FF2101FA03F3DB4302EA03017E
:102D3000BB681A6A7B6803F010039A40FB681B6843
:102D40000A43DA64BB681B69012B1DD1FB681B6851
:102D50009B6BBB617B6803F010031F2202FA03F335
:102D6000DB43BA691340BB61BB685B697B617B680D
:102D700003F010037A6902FA03F3BA691343BB61E3
:102D8000FB681B68BA699A63FB681B68DB6BBB61F5
:102D90007B6803F01003072202FA03F3DB43BA69EE
:102DA0001340BB61BB681A68BB689B681A43BB6869
:102DB000DB6813437B617B6803F010037A6902FAD6
:102DC00003F3BA691343BB61FB681B68BA69DA6332
:102DD000FB681B6819687B6803F010034FF480429E
:102DE00002FA03F3DA43FB681B680A401A60FB68C7
:102DF0001B681B68BB617B6803F0100340F6FC7224
:102E000002FA03F3DB43BA691340BB61BB685B683A
:102E10007B617B6803F010037A6902FA03F3BA69F5
:102E20001343BB61FB681B68BA691A60FB681B68C7
:102E300019687B6803F01003C02202FA03F3DA4337
:102E4000FB681B680A401A60FB6801221A71FB6864
:102E500000225A71002318462037BD4680BD80B538
:102E600084B000AF78607B689B6AFB60F868FFF70E
:102E7000B1FEFB6801221A7100BF1037BD4680BD4C
:102E800080B584B000AF78607B689B6AFB60F868AF
:102E9000FFF7AAFE00BF1037BD4680BD80B584B0E5
:102EA00000AF78607B689B6AFB60FB681B6943F03E
:102EB0000402FB681A61F868FFF7A0FEFB680122B4
:102EC0001A7100BF1037BD4680BD000080B485B0C8
:102ED00000AF78607B68002B01D1012398E07B680C
:102EE0001B681A464D4B9A420FD87B681B681A46DE
:102EF0004B4B13444B4AA2FB03231B099A007B68EC
:102F00005A647B68484A1A640EE07B681B681A465C
:102F1000464B1344434AA2FB03231B099A007B68D8
:102F20005A647B68424A1A647B68022283F825202F
:102F30007B681B681B68FB60FB6823F4FF4323F07E
:102F40007003FB607B689A687B68DB681A437B6868
:102F50001B691A437B685B691A437B689B691A4348
:102F60007B68DB691A437B681B6A1343FA68134367
:102F7000FB607B681B68FA681A607B689B68B3F526
:102F8000804F39D07B681B6C274A93421AD1294B5A
:102F90001A687B685B6C03F01C030F2101FA03F3D2
:102FA000DB43244913400B60224B1A687B68596845
:102FB0007B685B6C03F01C0301FA03F31D491343A8
:102FC0000B6019E01C4B1A687B685B6C03F01C03F8
:102FD0000F2101FA03F3DB43174913400B60164B33
:102FE0001A687B6859687B685B6C03F01C0301FA04
:102FF00003F3114913430B607B680022DA637B689B
:10300000012283F825207B68002283F824200023F6
:1030100018461437BD465DF8047B7047070402402C
:10302000F8FFFDBFCDCCCCCC00000240F8FBFDBFCB
:1030300000040240A8000240A804024080B586B007
:1030400000AFF860B9607A603B600023FB75FB68F5
:1030500093F82430012B01D102234BE0FB680122BD
:1030600083F82420FB6893F82530DBB2012B3AD19A
:10307000FB68022283F82520FB680022DA63FB68E4
:103080001B681A68FB681B6822F001021A603B6823
:103090007A68B968F86800F05FF9FB681B6B002B71
:1030A00008D0FB681B681A68FB681B6842F00E02B8
:1030B0001A600FE0FB681B681A68FB681B6822F047
:1030C00004021A60FB681B681A68FB681B6842F000
:1030D0000A021A60FB681B681A68FB681B6842F0EA
:1030E00001021A6005E0FB68002283F82420022315
:1030F000FB75FB7D18461837BD4680BD80B485B092
:1031000000AF78600023FB737B6893F82530DBB257
:10311000022B08D07B680422DA637B68002283F8E4
:103120002420012322E07B681B681A687B681B68E7
:1031300022F00E021A607B681B681A687B681B68A5
:1031400022F001021A607B685B6C03F01C027B6852
:103150001B6C012101FA02F25A607B68012283F89C
:1031600025207B68002283F82420FB7B1846143737
:10317000BD465DF8047B704780B584B000AF7860D1
:103180000023FB737B6893F82530DBB2022B05D05C
:103190007B680422DA630123FB7329E07B681B68E8
:1031A0001A687B681B6822F00E021A607B681B6835
:1031B0001A687B681B6822F001021A607B685B6CEE
:1031C00003F01C027B681B6C012101FA02F25A60B9
:1031D0007B68012283F825207B68002283F8242065
:1031E0007B689B6B002B03D07B689B6B7868984750
:1031F000FB7B18461037BD4680BD80B584B000AF5C
:1032000078607B681B6C1B68FB607B681B681B68B5
:10321000BB607B685B6C03F01C0304229A40FB6874
:103220001340002B26D0BB6803F00403002B21D0F1
:103230007B681B681B6803F02003002B07D17B68A9
:103240001B681A687B681B6822F004021A607B689E
:103250005B6C03F01C027B681B6C042101FA02F218
:103260005A607B681B6B002B71D07B681B6B786886
:1032700098476CE07B685B6C03F01C0302229A4069
:10328000FB681340002B2ED0BB6803F00203002B19
:1032900029D07B681B681B6803F02003002B0BD12F
:1032A0007B681B681A687B681B6822F00A021A6038
:1032B0007B68012283F825207B685B6C03F01C028D
:1032C0007B681B6C022101FA02F25A607B680022C3
:1032D00083F824207B68DB6A002B38D07B68DB6AAC
:1032E0007868984733E07B685B6C03F01C03082226
:1032F0009A40FB681340002B2AD0BB6803F00803F8
:10330000002B25D07B681B681A687B681B6822F03D
:103310000E021A607B685B6C03F01C027B681B6CFE
:10332000012101FA02F25A607B680122DA637B68AC
:10333000012283F825207B68002283F824207B6803
:103340005B6B002B04D07B685B6B7868984700BF91
:1033500000BF1037BD4680BD80B485B000AFF860B7
:10336000B9607A603B60FB685B6C03F01C02FB6831
:103370001B6C012101FA02F25A60FB681B683A6873
:103380005A60FB689B68102B08D1FB681B687A6841
:103390009A60FB681B68BA68DA6007E0FB681B6824
:1033A000BA689A60FB681B687A68DA6000BF1437F5
:1033B000BD465DF8047B704780B487B000AF78608D
:1033C000396000237B617FE13B681A6801217B69DA
:1033D00001FA03F31340FB60FB68002B00F07181DE
:1033E0003B685B6803F00303012B05D03B685B6817
:1033F00003F00303022B30D17B689B683B617B6940
:103400005B00032202FA03F3DB433A6913403B619A
:103410003B68DA687B695B0002FA03F33A6913439D
:103420003B617B683A699A607B685B683B6101221B
:103430007B6902FA03F3DB433A6913403B613B6863
:103440005B681B0903F001027B6902FA03F33A6926
:1034500013433B617B683A695A603B685B6803F0E1
:103460000303032B18D17B68DB6A3B6101227B6974
:1034700002FA03F3DB433A6913403B613B685B6844
:10348000DB0803F001027B6902FA03F33A69134394
:103490003B617B683A69DA623B685B6803F003036F
:1034A000032B17D07B68DB683B617B695B000322E1
:1034B00002FA03F3DB433A6913403B613B689A68C5
:1034C0007B695B0002FA03F33A6913433B617B6853
:1034D0003A69DA603B685B6803F00303022B23D18F
:1034E0007B69DA087B68083253F822303B617B69DC
:1034F00003F007039B000F2202FA03F3DB433A6950
:1035000013403B613B681A697B6903F007039B002A
:1035100002FA03F33A6913433B617B69DA087B687B
:103520000832396943F822107B681B683B617B696C
:103530005B00032202FA03F3DB433A6913403B6169
:103540003B685B6803F003027B695B0002FA03F3EC
:103550003A6913433B617B683A691A603B685B6870
:1035600003F44033002B00F0AC805F4B1B6E5E4ACF
:1035700043F0010313665C4B1B6E03F00103BB6059
:10358000BB685A4A7B699B08023352F823303B617F
:103590007B6903F003039B000F2202FA03F3DB4372
:1035A0003A6913403B617B68B3F1904F25D07B684B
:1035B0004F4A93421FD07B684E4A934219D07B6892
:1035C0004D4A934213D07B684C4A93420DD07B689E
:1035D0004B4A934207D07B684A4A934201D1062363
:1035E0000CE007230AE0052308E0042306E0032398
:1035F00004E0022302E0012300E000237A6902F0E4
:103600000302920093403A6913433B6137497B6957
:103610009B0802333A6941F823203B4B9B683B618E
:10362000FB68DB433A6913403B613B685B6803F42A
:103630008013002B03D03A69FB6813433B61324A85
:103640003B699360304BDB683B61FB68DB433A6965
:1036500013403B613B685B6803F40013002B03D00D
:103660003A69FB6813433B61274A3B69D360264BA9
:103670005B683B61FB68DB433A6913403B613B6835
:103680005B6803F40033002B03D03A69FB681343F3
:103690003B611D4A3B6953601B4B1B683B61FB68E8
:1036A000DB433A6913403B613B685B6803F480335A
:1036B000002B03D03A69FB6813433B61124A3B6914
:1036C00013607B6901337B613B681A687B6922FA6E
:1036D00003F3002B7FF478AE00BF00BF1C37BD465C
:1036E0005DF8047B704700BF0010024000000140FD
:1036F0000004004800080048000C00480010004882
:1037000000140048001800480004014080B584B04F
:1037100000AF78607B68002B01D101238FE07B68CC
:103720005B68012B7B6893F83630DBB2002B06D147
:103730007B68002283F835207868FDF7F9FD7B6807
:10374000022283F836207B681B68DB68FB607B689D
:103750005B68012B04D07B689B6AB3F5000F03D133
:10376000FB6823F01E03FB607B685B694FF6FF720A
:10377000934205D0FB6823F4604323F0C003FB6051
:10378000FA68314B1340FB607B685A687B689B6822
:103790001A437B681B6A1A437B685B6A1A437B681F
:1037A0009B6A1343FA681343FB607B685B68002BDA
:1037B00007D17B68DA697B681B691343FA68134396
:1037C000FB607B685B68012B04D07B689B6AB3F568
:1037D000000F07D17B68DA687B681B691343FA68BE
:1037E0001343FB607B685B694FF6FF7293420AD01C
:1037F0007B685A697B689B691A437B68DB69134362
:10380000FA681343FB607B681B68FA68DA607B68C0
:103810001B680E4A934208D17B68D96A7B681A6B91
:103820007B681B680A431A6204E07B681B687A683D
:10383000D26A1A627B68012283F836200023184678
:103840001037BD4680BD00BFFEF119FF007C00406F
:1038500080B584B000AFF860B9607A60FB6802227E
:1038600083F83620FB681B68364A934206D1364BF4
:103870001B6A354A43F00103136205E0324B1B6AB1
:10388000314A43F002031362FB681B68DA68FB6885
:103890001B6842F40022DA60FB681B681A69FB6847
:1038A0001B6842F001021A61FB681B6810225A6013
:1038B000FB681B68BA689A611021F86800F078F913
:1038C0000346032B01D1032338E0FB681B68082261
:1038D0005A60FB681B687A685A610821F86800F032
:1038E00067F90346032B01D1032327E0F86800F0B2
:1038F0008FF9F86800F04DF90346032B01D103233B
:103900001CE0FB681B689A68FB681B6842F00102B8
:103910009A60FB681B681A69FB681B6842F0010229
:103920001A61FB681B681A69FB681B6842F0040295
:103930001A61FB68012283F83620002318461037ED
:10394000BD4680BD007C00400004014080B582B0CF
:1039500000AF78607B681B681B4A934206D11B4B03
:103960001B6A1A4A23F00103136205E0174B1B6A16
:10397000164A23F0020313627B68022283F8362082
:10398000786800F045F9786800F003F90346032BE6
:1039900001D1032314E07B681B68DA687B681B682D
:1039A00022F40022DA607B681B689A687B681B68D7
:1039B00022F001029A607B68012283F836200023FE
:1039C00018460837BD4680BD007C00400004014019
:1039D00080B582B000AF78607B681B681B6803F01D
:1039E0000103012B0DD17B681B689B6803F0010369
:1039F000012B06D17B681B6801225A60786800F0B1
:103A000082F87B681B681B6803F00203022B0DD150
:103A10007B681B689B6803F00203022B06D17B685E
:103A20001B6802225A60786800F077F87B681B6890
:103A30001B6803F00403042B0DD17B681B689B6893
:103A400003F00403042B06D17B681B6804225A6030
:103A5000786800F06CF87B681B681B6803F008034B
:103A6000082B0DD17B681B689B6803F00803082BAB
:103A700006D17B681B6808225A60786800F061F8FC
:103A80007B681B681B6803F01003102B0DD17B684B
:103A90001B689B6803F01003102B06D17B681B6822
:103AA00010225A60786800F056F87B681B681B6823
:103AB00003F02003202B0DD17B681B689B6803F06B
:103AC0002003202B06D17B681B6820225A6078686F
:103AD00000F04BF87B681B681B6803F04003402B29
:103AE0000DD17B681B689B6803F04003402B06D117
:103AF0007B681B6840225A60786800F040F800BF7D
:103B00000837BD4680BD80B483B000AF786000BF89
:103B10000C37BD465DF8047B704780B483B000AFBE
:103B2000786000BF0C37BD465DF8047B704780B4F9
:103B300083B000AF786000BF0C37BD465DF8047BF2
:103B4000704780B483B000AF786000BF0C37BD46CB
:103B50005DF8047B704780B483B000AF786000BF2D
:103B60000C37BD465DF8047B704780B483B000AF6E
:103B7000786000BF0C37BD465DF8047B704780B4A9
:103B800083B000AF786000BF0C37BD465DF8047BA2
:103B9000704780B483B000AF78607B6893F83630AC
:103BA000DBB218460C37BD465DF8047B7047000059
:103BB00080B485B000AF786039600023FB73124B8E
:103BC0001B68124AA2FB03239B0B4FF47A7202FB81
:103BD00003F3BB60BB68013BBB60BB68002B01D13A
:103BE0000323FB737B681B681A683B6813403A68C1
:103BF0009A4202D0BB68002BECD1FB7B18461437ED
:103C0000BD465DF8047B7047000000205917B7D10E
:103C100080B58CB000AF78600023FB62EFF31083B7
:103C2000FB60FB68BB6201233B613B6983F3108847
:103C300000BF7B681B68734A934203D0724A934269
:103C400007D00DE0714BD3F8883003F44023FB62BA
:103C500006E06E4BD3F8883003F44013FB6200BFDC
:103C60007B681B689B687B627B681B68DB683B62C8
:103C70007B681B685B69FB617B681B689B69BB6138
:103C80007B681B681B6A7B617B681B685D4A93428B
:103C900003D05D4A93420DD019E05C4B9B6B5B4AAD
:103CA00043F000439363594B9B6B584A23F0004306
:103CB00093630CE0554BDB6B544A43F02003D36312
:103CC000524BDB6B514A23F02003D36300BFFB69E7
:103CD000002B02D1BB69002B75D07B681B68494A59
:103CE000934203D0484A934209D011E0474BD3F89E
:103CF0008830464A23F44023C2F8883008E0434B1A
:103D0000D3F88830414A23F44013C2F8883000BF0A
:103D1000FB69002B1AD07B681B681A697B681B68DB
:103D200042F001021A617B681B68FA695A61082136
:103D30007868FFF73DFF0346032B03D17B6803221E
:103D400083F836207B681B6808225A60BB69002B09
:103D50001AD07B681B681A697B681B6842F00102F5
:103D60001A617B681B68BA699A6110217868FFF74D
:103D70001FFF0346032B03D17B68032283F8362001
:103D80007B681B6810225A607B681B681D4A93423F
:103D900003D01D4A93420BD016E01C4BD3F8883059
:103DA00023F440221949FB6A1343C1F888300BE021
:103DB000164BD3F8883023F440121449FB6A13439E
:103DC000C1F8883000E000BF7B681B681A697B6817
:103DD0001B6822F001021A617B681B687A6A9A608C
:103DE0007B681B683A6ADA607B681B687A691A62CA
:103DF000BB6ABB60BB6883F3108800BF00BF30376D
:103E0000BD4680BD007C0040009400400010024090
:103E100080B400AF044B1B6803F4C0631846BD4672
:103E20005DF8047B704700BF0070004080B485B02F
:103E300000AF78607B68B3F5007F30D1234B1B68FF
:103E400003F4C063B3F5007F38D0204B1B6823F424
:103E5000C0631E4A43F4007313601D4B1B6832227B
:103E600002FB03F31B4AA2FB03239B0C0133FB6001
:103E700002E0FB68013BFB60144B5B6903F4806369
:103E8000B3F5806F02D1FB68002BF2D10F4B5B6959
:103E900003F48063B3F5806F10D103230FE00B4B65
:103EA0001B6803F4C063B3F5806F07D0074B1B6832
:103EB00023F4C063054A43F480631360002318466B
:103EC0001437BD465DF8047B704700BF00700040AA
:103ED0000000002083DE1B4380B483B000AF0346A4
:103EE000FB71114B1B6823F007030F4A43F00103DA
:103EF00013600E4B1B690D4A43F004031361FB79F9
:103F0000012B01D130BF02E040BF20BF20BF074BD3
:103F10001B69064A23F00403136100BF0C37BD463A
:103F20005DF8047B704700BF0070004000ED00E0CA
:103F300080B483B000AF0346FB71114B1B6823F0C4
:103F400007030F4A43F0020313600E4B1B690D4A2F
:103F500043F004031361FB79012B01D130BF02E070
:103F600040BF20BF20BF074B1B69064A23F0040354
:103F7000136100BF0C37BD465DF8047B704700BF7E
:103F80000070004000ED00E080B586B000AF7860C2
:103F90000023FB740023BB747B681B6803F400637D
:103FA000002B41D07B685B6EB3F5400F2AD0B3F590
:103FB000400F24D8B3F5000F08D0B3F5000F1ED87A
:103FC000002B0AD0B3F5800F10D018E0864BDB68C9
:103FD000854A43F48033D36015E07B6804330021C5
:103FE000184600F0BBFA0346FB740CE07B682033F4
:103FF0000021184600F0A6FB0346FB7403E00123F2
:10400000FB7400E000BFFB7C002B0BD1764BD3F898
:10401000883023F440027B685B6E73491343C1F818
:10402000883001E0FB7CBB747B681B6803F4805321
:10403000002B41D07B689B6EB3F1407F2AD0B3F157
:10404000407F24D8B3F1007F08D0B3F1007F1ED8A1
:10405000002B0AD0B3F1807F10D018E0624BDB68F0
:10406000614A43F48033D36015E07B680433002158
:10407000184600F073FA0346FB740CE07B682033AB
:104080000021184600F05EFB0346FB7403E00123A9
:10409000FB7400E000BFFB7C002B0BD1524BD3F82C
:1040A000883023F040727B689B6E4F491343C1F800
:1040B000883001E0FB7CBB747B681B6803F4003331
:1040C000002B00F0A08000237B74474B9B6D03F016
:1040D0008053002B01D1012300E00023002B0DD0E1
:1040E000414B9B6D404A43F0805393653E4B9B6D23
:1040F00003F08053BB60BB6801237B743B4B1B68A0
:104100003A4A43F48073136003F024F8F86009E03E
:1041100003F020F80246FB68D31A022B02D90323CE
:10412000FB7405E0314B1B6803F48073002BEFD068
:10413000FB7C002B5CD12C4BD3F8903003F4407304
:104140007B617B69002B1FD07B68D3F884307A6950
:104150009A4219D0244BD3F8903023F440737B61FA
:10416000214BD3F89030204A43F48033C2F890308A
:104170001D4BD3F890301C4A23F48033C2F89030A2
:10418000194A7B69C2F890307B6903F00103002B68
:1041900016D002F0DFFFF8600BE002F0DBFF024612
:1041A000FB68D31A41F28832934202D90323FB748D
:1041B00006E00D4BD3F8903003F00203002BECD057
:1041C000FB7C002B0CD1084BD3F8903023F44072C9
:1041D0007B68D3F8843004491343C1F8903009E078
:1041E000FB7CBB7406E000BF001002400070004082
:1041F000FB7CBB747B7C012B05D19E4B9B6D9D4A48
:1042000023F0805393657B681B6803F00103002B48
:104210000AD0984BD3F8883023F003027B689B6B5D
:1042200094491343C1F888307B681B6803F002038C
:10423000002B0AD08F4BD3F8883023F00C027B6818
:10424000DB6B8C491343C1F888307B681B6803F033
:104250000403002B0AD0874BD3F8883023F03002B8
:104260007B681B6C83491343C1F888307B681B68EB
:1042700003F00803002B0AD07E4BD3F8883023F0DC
:10428000C0027B685B6C7B491343C1F888307B6854
:104290001B6803F01003002B0AD0764BD3F888304C
:1042A00023F440727B689B6C72491343C1F88830D9
:1042B0007B681B6803F02003002B0AD06D4BD3F8FA
:1042C000883023F440627B68DB6C6A491343C1F891
:1042D00088307B681B6803F40073002B0AD0654BA1
:1042E000D3F8883023F440227B68DB6D61491343A7
:1042F000C1F888307B681B6803F48063002B0AD008
:104300005C4BD3F8883023F440127B681B6E59490C
:104310001343C1F888307B681B6803F04003002B0F
:104320000AD0544BD3F8883023F440527B681B6D7D
:1043300050491343C1F888307B681B6803F0800341
:10434000002B0AD04B4BD3F8883023F440427B68D3
:104350005B6D48491343C1F888307B681B6803F4E0
:104360008073002B0AD0434BD3F8883023F44032BB
:104370007B689B6D3F491343C1F888307B681B689D
:1043800003F40053002B28D03A4BD3F8883023F0A5
:1043900040627B68DB6E37491343C1F888307B6825
:1043A000DB6EB3F1006F06D1324BDB68314A43F468
:1043B0008013D36011E07B68DB6EB3F1806F0CD1AA
:1043C0007B6804330121184600F0C8F80346FB74EB
:1043D000FB7C002B01D0FB7CBB747B681B6803F467
:1043E0000023002B28D0234BD3F8883023F04062E1
:1043F0007B681B6F1F491343C1F888307B681B6FB4
:10440000B3F1006F06D11B4BDB681A4A43F48013EB
:10441000D36011E07B681B6FB3F1806F0CD17B68B8
:1044200004330121184600F099F80346FB74FB7C25
:10443000002B01D0FB7CBB747B681B6803F48023DA
:10444000002B2BD00B4BD3F8883023F040627B68D5
:104450005B6F08491343C1F888307B685B6FB3F129
:10446000006F09D1034BDB68024A43F48013D36029
:1044700014E000BF001002407B685B6FB3F1806FF7
:104480000CD17B6804330121184600F067F803461D
:10449000FB74FB7C002B01D0FB7CBB747B681B682E
:1044A00003F48043002B2FD02B4BD3F8883023F01C
:1044B00040527B689B6F28491343C1F888307B6862
:1044C0009B6FB3F1805F0DD17B68043302211846E6
:1044D00000F044F80346FB74FB7C002B14D0FB7CFB
:1044E000BB7411E07B689B6FB3F1005F0CD17B68FC
:1044F00020330221184600F025F90346FB74FB7CAB
:10450000002B01D0FB7CBB747B681B6803F4004369
:10451000002B0AD0104BD3F8883023F080427B6800
:10452000DB6F0D491343C1F888307B681B6803F4C7
:104530008033002B0BD0084BD3F8883023F0004297
:104540007B68D3F8803004491343C1F88830BB7CC2
:1045500018461837BD4680BD0010024080B584B0B3
:1045600000AF786039600023FB73754BDB6803F0A4
:104570000303002B18D0724BDB6803F003027B6847
:104580001B689A420DD17B681B68002B09D06C4BCD
:10459000DB681B0903F007035A1C7B685B689A42BF
:1045A00047D00123FB7344E07B681B68032B18D0C2
:1045B000032B25D8012B02D0022B09D020E0604B21
:1045C0001B6803F00203002B1DD10123FB731AE0CB
:1045D0005B4B1B6803F48063002B16D10123FB7334
:1045E00013E0574B1B6803F40033002B0FD1544BDF
:1045F0001B6803F48023002B09D10123FB7306E021
:104600000123FB7304E000BF02E000BF00E000BF35
:10461000FB7B002B0DD14A4BDB6823F073027B68D8
:1046200019687B685B68013B1B010B4344491343DA
:10463000CB60FB7B002B7DD1414B1B68404A23F0B4
:104640008063136002F086FDB86009E002F082FD2D
:104650000246BB68D31A022B02D90323FB7305E081
:10466000374B1B6803F00063002BEFD1FB7B002B63
:1046700060D13B68002B11D1314B1B6923F41F33F0
:1046800023F440737A68926811027A68D26812093A
:1046900052040A432A4913430B6127E03B68012B6C
:1046A00012D1274B1B6923F4C00323F4FE437A681D
:1046B000926811027A6812695208013A52050A4357
:1046C0001F4913430B6111E01D4B1B6923F0C063AD
:1046D00023F4FE437A68926811027A68526952089C
:1046E000013A52060A43164913430B61144B1B68E7
:1046F000134A43F08063136002F02CFDB86009E0B8
:1047000002F028FD0246BB68D31A022B02D903230C
:10471000FB7305E00A4B1B6803F00063002BEFD02E
:10472000FB7B002B06D1064B1A697B689B69044909
:1047300013430B61FB7B18461037BD4680BD00BF9D
:104740000010024080B584B000AF7860396000236B
:10475000FB736A4BDB6803F00303002B18D0674B35
:10476000DB6803F003027B681B689A420DD17B680B
:104770001B68002B09D0614BDB681B0903F00703A2
:104780005A1C7B685B689A4247D00123FB7344E064
:104790007B681B68032B18D0032B25D8012B02D074
:1047A000022B09D020E0554B1B6803F00203002BBD
:1047B0001DD10123FB731AE0504B1B6803F4806387
:1047C000002B16D10123FB7313E04C4B1B6803F441
:1047D0000033002B0FD1494B1B6803F48023002BBF
:1047E00009D10123FB7306E00123FB7304E000BF42
:1047F00002E000BF00E000BFFB7B002B0DD13F4B70
:10480000DB6823F073027B6819687B685B68013B97
:104810001B010B4339491343CB60FB7B002B67D152
:10482000364B1B68354A23F08053136002F092FC2C
:10483000B86009E002F08EFC0246BB68D31A022B76
:1048400002D90323FB7305E02C4B1B6803F00053D4
:10485000002BEFD1FB7B002B4AD13B68002B11D101
:10486000264B5B6923F41F3323F440737A68926804
:1048700011027A68D268120952040A431F4913438D
:104880004B6111E01D4B5B6923F0C06323F4FE43D1
:104890007A68926811027A6812695208013A5206DF
:1048A0000A43164913434B61144B1B68134A43F0E8
:1048B0008053136002F04EFCB86009E002F04AFC3D
:1048C0000246BB68D31A022B02D90323FB7305E00F
:1048D0000A4B1B6803F00053002BEFD0FB7B002B2F
:1048E00006D1064B5A697B685B69044913434B61E7
:1048F000FB7B18461037BD4680BD00BF001002404C
:1049000080B582B000AF4A4B1B68494A43F00103AF
:10491000136002F01FFC786008E002F01BFC024606
:104920007B68D31A022B01D903237CE0404B1B6820
:1049300003F00203002BF0D03D4B1B6823F0F00383
:104940003B4A43F060031360394B00229A60394BB5
:10495000394A1A60394B1B68184602F0ABFB034614
:10496000002B01D001235EE002F0F4FB78600AE046
:1049700002F0F0FB02467B68D31A41F28832934280
:1049800001D903234FE02A4B9B6803F00C03002B53
:10499000EED1274B1A682649294B13400B6002F0D1
:1049A000D9FB786008E002F0D5FB02467B68D31A99
:1049B000022B01D9032336E01D4B1B6803F028535B
:1049C000002BF0D11A4B0022DA60194BDB68184A31
:1049D00043F48053D360164B00221A61144B1B69B9
:1049E000134A43F480531361114B00225A61104B58
:1049F0005B690F4A43F4805353610D4B1B680C4AAB
:104A000023F4802313600A4B00229A61084B4FF075
:104A1000FF321A62064BD3F89430054A43F4000380
:104A2000C2F89430002318460837BD4680BD00BF49
:104A3000001002400000002000093D00180B00207B
:104A4000FFF4FEEA80B588B000AF78607B68002B89
:104A500001D10123CAE3974B9B6803F00C03BB61B0
:104A6000944BDB6803F003037B617B681B6803F0F6
:104A70001003002B00F0E480BB69002B07D0BB695A
:104A80000C2B40F08B807B69012B40F08780894B99
:104A90001B6803F00203002B05D07B689B69002B89
:104AA00001D10123A2E37B681A6A824B1B6803F0E1
:104AB0000803002B04D07F4B1B6803F0F00305E0D4
:104AC0007C4BD3F894301B0903F0F003934223D2BC
:104AD0007B681B6A184600F055FD0346002B01D089
:104AE000012383E3734B1B68724A43F0080313608E
:104AF000704B1B6823F0F0027B681B6A6D491343FF
:104B00000B606C4B5B6823F47F427B68DB691B02A4
:104B1000684913434B6025E0664B1B68654A43F0C8
:104B200008031360634B1B6823F0F0027B681B6A69
:104B3000604913430B605F4B5B6823F47F427B68E3
:104B4000DB691B025B4913434B60BB69002B09D136
:104B50007B681B6A184600F015FD0346002B01D048
:104B6000012343E300F04AFC0246524B9B681B09B9
:104B700003F00F035049CB5C03F01F0322FA03F349
:104B80004E4A13604E4B1B68184602F093FA0346D8
:104B9000FB73FB7B002B52D0FB7B27E37B689B697D
:104BA000002B32D0434B1B68424A43F00103136091
:104BB00002F0D0FA386108E002F0CCFA02463B6914
:104BC000D31A022B01D9032310E33A4B1B6803F0DD
:104BD0000203002BF0D0374B1B68364A43F0080322
:104BE0001360344B1B6823F0F0027B681B6A314969
:104BF00013430B602F4B5B6823F47F427B68DB69B8
:104C00001B022C4913434B601AE02A4B1B68294AAC
:104C100023F00103136002F09DFA386108E002F00E
:104C200099FA02463B69D31A022B01D90323DDE22C
:104C3000204B1B6803F00203002BF0D100E000BF03
:104C40007B681B6803F00103002B74D0BB69082B41
:104C500005D0BB690C2B0ED17B69032B0BD1154BF7
:104C60001B6803F40033002B64D07B685B68002B67
:104C700060D10123BAE27B685B68B3F5803F06D15F
:104C80000C4B1B680B4A43F48033136026E07B68AF
:104C90005B68B3F5A02F15D1064B1B68054A43F49A
:104CA00080231360034B1B68024A43F48033136074
:104CB00014E000BF0010024068A1000800000020BE
:104CC000180B0020A04B1B689F4A23F4803313600D
:104CD0009D4B1B689C4A23F4802313607B685B68B0
:104CE000002B13D002F036FA386108E002F032FAF5
:104CF00002463B69D31A642B01D9032376E2924B17
:104D00001B6803F40033002BF0D014E002F022FA09
:104D1000386108E002F01EFA02463B69D31A642BA0
:104D200001D9032362E2884B1B6803F40033002B94
:104D3000F0D100E000BF7B681B6803F00203002B8A
:104D400060D0BB69042B05D0BB690C2B19D17B69E2
:104D5000022B16D17C4B1B6803F48063002B05D01B
:104D60007B68DB68002B01D101233FE2764B5B6857
:104D700023F0F8527B681B691B06734913434B6091
:104D800040E07B68DB68002B23D06F4B1B686E4ACA
:104D900043F48073136002F0DDF9386108E002F03B
:104DA000D9F902463B69D31A022B01D903231DE22C
:104DB000654B1B6803F48063002BF0D0624B5B688B
:104DC00023F0F8527B681B691B065F4913434B6055
:104DD00018E05D4B1B685C4A23F48073136002F09B
:104DE000B9F9386108E002F0B5F902463B69D31A17
:104DF000022B01D90323F9E1534B1B6803F48063B1
:104E0000002BF0D17B681B6803F00803002B3CD01B
:104E10007B685B69002B1CD04B4BD3F894304A4A1B
:104E200043F00103C2F8943002F094F9386108E0CD
:104E300002F090F902463B69D31A022B01D90323F1
:104E4000D4E1414BD3F8943003F00203002BEFD0B0
:104E50001BE03D4BD3F894303B4A23F00103C2F8EA
:104E6000943002F077F9386108E002F073F90246F5
:104E70003B69D31A022B01D90323B7E1324BD3F894
:104E8000943003F00203002BEFD17B681B6803F022
:104E90000403002B00F0A6800023FB772A4B9B6DB8
:104EA00003F08053002B0DD1274B9B6D264A43F016
:104EB00080539365244B9B6D03F08053BB60BB68AC
:104EC0000123FB77214B1B6803F48073002B18D15F
:104ED0001E4B1B681D4A43F48073136002F03AF9BD
:104EE000386108E002F036F902463B69D31A022B1A
:104EF00001D903237AE1154B1B6803F48073002B5F
:104F0000F0D07B689B68012B08D10F4BD3F8903011
:104F10000D4A43F00103C2F8903029E07B689B689A
:104F2000052B15D1084BD3F89030074A43F0040302
:104F3000C2F89030044BD3F89030034A43F0010399
:104F4000C2F8903014E000BF001002400070004032
:104F50009C4BD3F890309B4A23F00103C2F8903069
:104F6000984BD3F89030974A23F00403C2F890305E
:104F70007B689B68002B16D002F0ECF838610AE0E1
:104F800002F0E8F802463B69D31A41F288329342B4
:104F900001D903232AE18B4BD3F8903003F00203AD
:104FA000002BEDD015E002F0D5F838610AE002F0F0
:104FB000D1F802463B69D31A41F28832934201D9B3
:104FC000032313E17F4BD3F8903003F00203002B4F
:104FD000EDD1FB7F012B05D17A4B9B6D794A23F0F4
:104FE000805393657B689B6A002B00F0FE807B6892
:104FF0009B6A022B40F0D080724BDB687B617B693F
:1050000003F003027B68DB6A9A4230D17B6903F0CC
:1050100070027B681B6B013B1B019A4227D17B69A5
:1050200003F4FE427B685B6B1B029A421FD17B69D3
:1050300003F400337A68926B072A14BF012200221E
:10504000D2B2934213D17B6903F4C0027B68DB6B5D
:105050005B08013B5B059A4209D17B6903F0C062A2
:105060007B681B6C5B08013B5B069A426ED0BB6998
:105070000C2B69D0534B1B6803F08063002B05D1C8
:10508000504B1B6803F08053002B01D00123ADE08F
:105090004C4B1B684B4A23F08073136002F05AF8A4
:1050A000386108E002F056F802463B69D31A022B39
:1050B00001D903239AE0434B1B6803F00073002BD4
:1050C000F0D1404BDA68404B13407A68D16A7A6875
:1050D000126B013A120111437A68526B12021143AA
:1050E0007A68D26B5208013A520511437A68126C01
:1050F0005208013A520611437A68926B120952041F
:105100000A4330491343CB602E4B1B682D4A43F0B2
:10511000807313602B4BDB682A4A43F08073D360A3
:1051200002F018F8386108E002F014F802463B6912
:10513000D31A022B01D9032358E0224B1B6803F03A
:105140000073002BF0D050E001234FE01D4B1B6893
:1051500003F00073002B48D11A4B1B68194A43F027
:1051600080731360174BDB68164A43F08073D3607B
:1051700001F0F0FF386108E001F0ECFF02463B6906
:10518000D31A022B01D9032330E00E4B1B6803F026
:105190000073002BF0D028E0BB690C2B23D0094B07
:1051A0001B68084A23F08073136001F0D3FF386155
:1051B0000CE001F0CFFF02463B69D31A022B05D960
:1051C000032313E0001002408C809DF9094B1B68FB
:1051D00003F00073002BECD1064BDA680549064B4F
:1051E0001340CB6001E0012300E000231846203784
:1051F000BD4680BD00100240FCFFEEFE80B584B0CD
:1052000000AF786039607B68002B01D10123E7E0B3
:10521000754B1B6803F007033A689A4210D9724B2A
:105220001B6823F0070270493B6813430B606E4B09
:105230001B6803F007033A689A4201D00123CFE0CC
:105240007B681B6803F00203002B10D07B689A6810
:10525000664B9B6803F0F0039A4208D9634B9B6846
:1052600023F0F0027B689B68604913438B607B6886
:105270001B6803F00103002B4CD07B685B68032B99
:1052800007D15A4B1B6803F00073002B21D1012377
:10529000A6E07B685B68022B07D1544B1B6803F4C4
:1052A0000033002B15D101239AE07B685B68002B4B
:1052B00007D14E4B1B6803F00203002B09D10123D9
:1052C0008EE04A4B1B6803F48063002B01D101235D
:1052D00086E0464B9B6823F003027B685B6843498A
:1052E00013438B6001F036FFF8600AE001F032FFF3
:1052F0000246FB68D31A41F28832934201D9032354
:105300006EE03A4B9B6803F00C027B685B689B0085
:105310009A42EBD17B681B6803F00203002B10D08C
:105320007B689A68314B9B6803F0F0039A4208D27D
:105330002E4B9B6823F0F0027B689B682B4913433C
:105340008B60294B1B6803F007033A689A4210D21E
:10535000254B1B6823F0070223493B6813430B606E
:10536000214B1B6803F007033A689A4201D00123DE
:1053700036E07B681B6803F00403002B08D01B4B4E
:105380009B6823F4E0627B68DB68184913438B60F9
:105390007B681B6803F00803002B09D0134B9B6844
:1053A00023F460527B681B69DB00104913438B6058
:1053B00000F024F802460D4B9B681B0903F00F0315
:1053C0000B49CB5C03F01F0322FA03F3094A136075
:1053D000094B1B68184601F06DFE0346FB72FB7A11
:1053E00018461037BD4680BD002002400010024024
:1053F00068A1000800000020180B002080B489B0CC
:1054000000AF0023FB610023BB613E4B9B6803F0B0
:105410000C033B613B4BDB6803F00303FB603B6920
:10542000002B05D03B690C2B21D1FB68012B1ED131
:10543000344B1B6803F00803002B07D1314BD3F822
:1054400094301B0A03F00F03FB6105E02D4B1B6832
:105450001B0903F00F03FB612B4AFB6952F8233051
:10546000FB613B69002B0DD1FB69BB610AE03B6925
:10547000042B02D1254BBB6104E03B69082B01D111
:10548000234BBB613B690C2B34D11E4BDB6803F013
:105490000303BB60BB68022B03D0BB68032B03D0A4
:1054A00005E01A4B7B6105E0194B7B6102E0FB696B
:1054B0007B6100BF134BDB681B0903F0070301335B
:1054C0007B60104BDB681B0A03F07F037A6903FBE8
:1054D00002F27B68B2FBF3F37B610A4BDB685B0E85
:1054E00003F0030301335B003B607A693B68B2FB66
:1054F000F3F3BB61BB6918462437BD465DF8047BF6
:10550000704700BF0010024080A100080024F40092
:1055100000127A0080B400AF034B1B681846BD46EA
:105520005DF8047B704700BF0000002080B500AF2D
:10553000FFF7F0FF0246064B9B681B0A03F00703C8
:105540000449CB5C03F01F0322FA03F3184680BD25
:105550000010024078A1000880B500AFFFF7DAFF25
:105560000246064B9B68DB0A03F007030449CB5C49
:1055700003F01F0322FA03F3184680BD0010024017
:1055800078A1000880B586B000AF786000233B6149
:105590002A4B9B6D03F08053002B03D0FEF738FCA1
:1055A000786114E0254B9B6D244A43F0805393654A
:1055B000224B9B6D03F08053FB60FB68FEF728FCD9
:1055C00078611E4B9B6D1D4A23F0805393657B6968
:1055D000B3F5007F0BD17B68802B19D97B68A02B9A
:1055E00002D902233B6113E001233B6110E07B6899
:1055F000802B02D903233B610AE07B68802B02D118
:1056000002233B6104E07B68702B01D101233B61E5
:105610000B4B1B6823F0070209493B6913430B60DE
:10562000074B1B6803F007033A699A4201D0012334
:1056300000E0002318461837BD4680BD0010024028
:105640000020024080B483B000AF786000BF0C3708
:10565000BD465DF8047B704780B582B000AF7860CE
:105660007B68002B01D1012340E07B68DB6F002BBE
:1056700006D17B68002283F878207868FCF7E6FC86
:105680007B682422DA677B681B681A687B681B6862
:1056900022F001021A607B685B6A002B02D07868F6
:1056A00000F050FF786800F095FC0346012B01D113
:1056B00001231BE07B681B685A687B681B6822F427
:1056C00090425A607B681B689A687B681B6822F06E
:1056D0002A029A607B681B681A687B681B6842F024
:1056E00001021A60786800F0CFFF034618460837B9
:1056F000BD4680BD80B58AB002AFF860B9603B603E
:105700001346FB80FB68DB6F202B78D1BB68002B36
:1057100002D0FB88002B01D1012371E0FB6800223D
:10572000C3F88420FB682122DA6701F013FD786159
:10573000FB68FA88A3F85020FB68FA88A3F8522087
:10574000FB689B68B3F5805F08D1FB681B69002B81
:1057500004D10023FB61BB68BB6103E0BB68FB6154
:105760000023BB6130E03B6800937B69002280210D
:10577000F86801F031F80346002B04D0FB682022C2
:10578000DA6703233CE0FB69002B0BD1BB691A8865
:10579000FB681B68C2F3080292B21A85BB69023328
:1057A000BB6108E0FB691A78FB681B6892B21A8536
:1057B000FB690133FB61FB68B3F852309BB2013BDC
:1057C0009AB2FB68A3F85220FB68B3F852309BB240
:1057D000002BC8D13B6800937B6900224021F86808
:1057E00000F0FAFF0346002B04D0FB682022DA67A2
:1057F000032305E0FB682022DA67002300E0022390
:1058000018462037BD4680BD80B58AB000AFF8602D
:10581000B9601346FB80FB68D3F88030202B37D16A
:10582000BB68002B02D0FB88002B01D1012330E0A4
:10583000FB6800221A66FB681B68184A93421FD057
:10584000FB681B685B6803F40003002B18D0FB683F
:105850001B687B617B6953E8003F3B613B6943F018
:1058600080637B62FB681B681A467B6A3B62FA6155
:10587000F9693A6A41E80023BB61BB69002BE6D1B4
:10588000FB881A46B968F86801F00EF8034600E094
:10589000022318462837BD4680BD00BF0080004067
:1058A00080B58AB000AFF860B9601346FB80FB6832
:1058B000DB6F202B65D1BB68002B02D0FB88002B4F
:1058C00001D101235EE0FB68BA68DA64FB68FA88FC
:1058D000A3F85020FB68FA88A3F85220FB68002246
:1058E000C3F88420FB682122DA67FB681B6F002B5A
:1058F00027D0FB681B6F254ADA62FB681B6F244ABE
:105900001A63FB681B6F234A5A63FB681B6F0022F4
:105910009A63FB68186FFB68DB6C1946FB681B68B1
:1059200028331A46FB88FDF789FB0346002B08D075
:10593000FB681022C3F88420FB682022DA67012369
:1059400020E0FB681B6840221A62FB681B68083372
:105950007B617B6953E8003F3B613B6943F0800317
:105960007B62FB681B6808337A6A3A62FB61F969FB
:105970003A6A41E80023BB61BB69002BE5D10023F3
:1059800000E0022318462837BD4680BD496B000859
:10599000E36B0008FF6B000880B5BAB000AF786019
:1059A0007B681B68DB69C7F8E4307B681B681B6891
:1059B000C7F8E0307B681B689B68C7F8DC30D7F815
:1059C000E42040F60F031340C7F8D830D7F8D8309A
:1059D000002B15D1D7F8E43003F02003002B0FD0B3
:1059E000D7F8E03003F02003002B09D07B689B6ED2
:1059F000002B00F0AE827B689B6E78689847A8E227
:105A0000D7F8D830002B00F01781D7F8DC3003F03E
:105A10000103002B06D1D7F8E020854B1340002B63
:105A200000F00A81D7F8E43003F00103002B11D015
:105A3000D7F8E03003F48073002B0BD07B681B6831
:105A400001221A627B68D3F8843043F001027B683C
:105A5000C3F88420D7F8E43003F00203002B11D000
:105A6000D7F8DC3003F00103002B0BD07B681B68F8
:105A700002221A627B68D3F8843043F004027B6808
:105A8000C3F88420D7F8E43003F00403002B11D0CE
:105A9000D7F8DC3003F00103002B0BD07B681B68C8
:105AA00004221A627B68D3F8843043F002027B68D8
:105AB000C3F88420D7F8E43003F00803002B17D094
:105AC000D7F8E03003F02003002B05D1D7F8DC3005
:105AD00003F00103002B0BD07B681B6808221A62BD
